{
  "abi": [
    {
      "anonymous": false,
      "inputs": [
        {
          "indexed": false,
          "internalType": "address",
          "name": "addr",
          "type": "address"
        },
        {
          "indexed": false,
          "internalType": "uint256",
          "name": "commitment",
          "type": "uint256"
        },
        {
          "indexed": false,
          "internalType": "uint256",
          "name": "price",
          "type": "uint256"
        }
      ],
      "name": "AddedCommitment",
      "type": "event"
    },
    {
      "inputs": [],
      "name": "auctionEnded",
      "outputs": [
        {
          "internalType": "bool",
          "name": "",
          "type": "bool"
        }
      ],
      "stateMutability": "view",
      "type": "function"
    },
    {
      "inputs": [],
      "name": "auctionSuccessful",
      "outputs": [
        {
          "internalType": "bool",
          "name": "",
          "type": "bool"
        }
      ],
      "stateMutability": "view",
      "type": "function"
    },
    {
      "inputs": [],
      "name": "auctionToken",
      "outputs": [
        {
          "internalType": "address",
          "name": "",
          "type": "address"
        }
      ],
      "stateMutability": "view",
      "type": "function"
    },
    {
      "inputs": [
        {
          "internalType": "uint256",
          "name": "_commitment",
          "type": "uint256"
        }
      ],
      "name": "calculateCommitment",
      "outputs": [
        {
          "internalType": "uint256",
          "name": "committed",
          "type": "uint256"
        }
      ],
      "stateMutability": "view",
      "type": "function"
    },
    {
      "inputs": [
        {
          "internalType": "address",
          "name": "",
          "type": "address"
        }
      ],
      "name": "claimed",
      "outputs": [
        {
          "internalType": "uint256",
          "name": "",
          "type": "uint256"
        }
      ],
      "stateMutability": "view",
      "type": "function"
    },
    {
      "inputs": [],
      "name": "clearingPrice",
      "outputs": [
        {
          "internalType": "uint256",
          "name": "",
          "type": "uint256"
        }
      ],
      "stateMutability": "view",
      "type": "function"
    },
    {
      "inputs": [],
      "name": "commitEth",
      "outputs": [],
      "stateMutability": "payable",
      "type": "function"
    },
    {
      "inputs": [
        {
          "internalType": "address payable",
          "name": "_from",
          "type": "address"
        }
      ],
      "name": "commitEthFrom",
      "outputs": [],
      "stateMutability": "payable",
      "type": "function"
    },
    {
      "inputs": [
        {
          "internalType": "uint256",
          "name": "_amount",
          "type": "uint256"
        }
      ],
      "name": "commitTokens",
      "outputs": [],
      "stateMutability": "nonpayable",
      "type": "function"
    },
    {
      "inputs": [
        {
          "internalType": "address",
          "name": "_from",
          "type": "address"
        },
        {
          "internalType": "uint256",
          "name": "_amount",
          "type": "uint256"
        }
      ],
      "name": "commitTokensFrom",
      "outputs": [],
      "stateMutability": "nonpayable",
      "type": "function"
    },
    {
      "inputs": [
        {
          "internalType": "address",
          "name": "",
          "type": "address"
        }
      ],
      "name": "commitments",
      "outputs": [
        {
          "internalType": "uint256",
          "name": "",
          "type": "uint256"
        }
      ],
      "stateMutability": "view",
      "type": "function"
    },
    {
      "inputs": [],
      "name": "commitmentsTotal",
      "outputs": [
        {
          "internalType": "uint256",
          "name": "",
          "type": "uint256"
        }
      ],
      "stateMutability": "view",
      "type": "function"
    },
    {
      "inputs": [],
      "name": "endDate",
      "outputs": [
        {
          "internalType": "uint256",
          "name": "",
          "type": "uint256"
        }
      ],
      "stateMutability": "view",
      "type": "function"
    },
    {
      "inputs": [],
      "name": "finaliseAuction",
      "outputs": [],
      "stateMutability": "nonpayable",
      "type": "function"
    },
    {
      "inputs": [],
      "name": "finalised",
      "outputs": [
        {
          "internalType": "bool",
          "name": "",
          "type": "bool"
        }
      ],
      "stateMutability": "view",
      "type": "function"
    },
    {
      "inputs": [
        {
          "internalType": "address",
          "name": "_funder",
          "type": "address"
        },
        {
          "internalType": "address",
          "name": "_token",
          "type": "address"
        },
        {
          "internalType": "uint256",
          "name": "_totalTokens",
          "type": "uint256"
        },
        {
          "internalType": "uint256",
          "name": "_startDate",
          "type": "uint256"
        },
        {
          "internalType": "uint256",
          "name": "_endDate",
          "type": "uint256"
        },
        {
          "internalType": "address",
          "name": "_paymentCurrency",
          "type": "address"
        },
        {
          "internalType": "uint256",
          "name": "_startPrice",
          "type": "uint256"
        },
        {
          "internalType": "uint256",
          "name": "_minimumPrice",
          "type": "uint256"
        },
        {
          "internalType": "address payable",
          "name": "_wallet",
          "type": "address"
        }
      ],
      "name": "initDutchAuction",
      "outputs": [],
      "stateMutability": "nonpayable",
      "type": "function"
    },
    {
      "inputs": [],
      "name": "minimumPrice",
      "outputs": [
        {
          "internalType": "uint256",
          "name": "",
          "type": "uint256"
        }
      ],
      "stateMutability": "view",
      "type": "function"
    },
    {
      "inputs": [],
      "name": "paymentCurrency",
      "outputs": [
        {
          "internalType": "address",
          "name": "",
          "type": "address"
        }
      ],
      "stateMutability": "view",
      "type": "function"
    },
    {
      "inputs": [],
      "name": "priceDrop",
      "outputs": [
        {
          "internalType": "uint256",
          "name": "",
          "type": "uint256"
        }
      ],
      "stateMutability": "view",
      "type": "function"
    },
    {
      "inputs": [],
      "name": "priceFunction",
      "outputs": [
        {
          "internalType": "uint256",
          "name": "",
          "type": "uint256"
        }
      ],
      "stateMutability": "view",
      "type": "function"
    },
    {
      "inputs": [],
      "name": "startDate",
      "outputs": [
        {
          "internalType": "uint256",
          "name": "",
          "type": "uint256"
        }
      ],
      "stateMutability": "view",
      "type": "function"
    },
    {
      "inputs": [],
      "name": "startPrice",
      "outputs": [
        {
          "internalType": "uint256",
          "name": "",
          "type": "uint256"
        }
      ],
      "stateMutability": "view",
      "type": "function"
    },
    {
      "inputs": [],
      "name": "tokenPrice",
      "outputs": [
        {
          "internalType": "uint256",
          "name": "",
          "type": "uint256"
        }
      ],
      "stateMutability": "view",
      "type": "function"
    },
    {
      "inputs": [],
      "name": "tokenWithdrawn",
      "outputs": [
        {
          "internalType": "uint256",
          "name": "",
          "type": "uint256"
        }
      ],
      "stateMutability": "view",
      "type": "function"
    },
    {
      "inputs": [
        {
          "internalType": "address",
          "name": "_user",
          "type": "address"
        }
      ],
      "name": "tokensClaimable",
      "outputs": [
        {
          "internalType": "uint256",
          "name": "",
          "type": "uint256"
        }
      ],
      "stateMutability": "view",
      "type": "function"
    },
    {
      "inputs": [],
      "name": "tokensRemaining",
      "outputs": [
        {
          "internalType": "uint256",
          "name": "",
          "type": "uint256"
        }
      ],
      "stateMutability": "view",
      "type": "function"
    },
    {
      "inputs": [],
      "name": "totalTokens",
      "outputs": [
        {
          "internalType": "uint256",
          "name": "",
          "type": "uint256"
        }
      ],
      "stateMutability": "view",
      "type": "function"
    },
    {
      "inputs": [],
      "name": "totalTokensCommitted",
      "outputs": [
        {
          "internalType": "uint256",
          "name": "",
          "type": "uint256"
        }
      ],
      "stateMutability": "view",
      "type": "function"
    },
    {
      "inputs": [],
      "name": "wallet",
      "outputs": [
        {
          "internalType": "address payable",
          "name": "",
          "type": "address"
        }
      ],
      "stateMutability": "view",
      "type": "function"
    },
    {
      "inputs": [],
      "name": "withdrawTokens",
      "outputs": [],
      "stateMutability": "nonpayable",
      "type": "function"
    },
    {
      "stateMutability": "payable",
      "type": "receive"
    }
  ],
  "bytecode": "608060405234801561001057600080fd5b5061123c806100206000396000f3fe6080604052600436106101d15760003560e01c80637e1c0c09116100f7578063a9d87ee611610095578063c8b0812511610064578063c8b0812514610530578063d7568b6e14610545578063e8fcf7231461055a578063f1a9af891461058d576101e1565b8063a9d87ee614610466578063ab6c07c61461047b578063c24a0f8b146104e8578063c884ef83146104fd576101e1565b806386433374116100d157806386433374146104125780638d8f2adb14610427578063919e93b51461043c57806399fdb32014610451576101e1565b80637e1c0c09146103d35780637f386b6c146103e85780637ff9b596146103fd576101e1565b806336d0054b1161016f5780634dc80e151161013e5780634dc80e151461034c578063521eb2731461037f5780635228733f1461039457806373973fcb146103a9576101e1565b806336d0054b146102c55780633d15cc6d146102da57806345dc13f31461030b5780634646783914610313576101e1565b806323bb46b6116101ab57806323bb46b6146102605780632897a6b9146102755780632b3853bd1461029b57806332a0f2d7146102b0576101e1565b80630482a787146101e65780630b97bc8614610210578063214bb60f14610237576101e1565b366101e1576101df336105a2565b005b600080fd5b3480156101f257600080fd5b506101df6004803603602081101561020957600080fd5b5035610650565b34801561021c57600080fd5b5061022561065d565b60408051918252519081900360200190f35b34801561024357600080fd5b5061024c610663565b604080519115158252519081900360200190f35b34801561026c57600080fd5b50610225610671565b6101df6004803603602081101561028b57600080fd5b50356001600160a01b03166105a2565b3480156102a757600080fd5b50610225610677565b3480156102bc57600080fd5b5061022561067d565b3480156102d157600080fd5b5061024c6106b2565b3480156102e657600080fd5b506102ef6106cb565b604080516001600160a01b039092168252519081900360200190f35b6101df6106da565b34801561031f57600080fd5b506101df6004803603604081101561033657600080fd5b506001600160a01b0381351690602001356106e5565b34801561035857600080fd5b506102256004803603602081101561036f57600080fd5b50356001600160a01b0316610779565b34801561038b57600080fd5b506102ef6107df565b3480156103a057600080fd5b506101df6107ee565b3480156103b557600080fd5b50610225600480360360208110156103cc57600080fd5b503561090c565b3480156103df57600080fd5b5061022561096a565b3480156103f457600080fd5b50610225610970565b34801561040957600080fd5b50610225610976565b34801561041e57600080fd5b5061024c61099b565b34801561043357600080fd5b506101df6109b4565b34801561044857600080fd5b50610225610ade565b34801561045d57600080fd5b506102ef610b00565b34801561047257600080fd5b50610225610b0f565b34801561048757600080fd5b506101df600480360361012081101561049f57600080fd5b506001600160a01b038135811691602081013582169160408201359160608101359160808201359160a081013582169160c08201359160e0810135916101009091013516610b3c565b3480156104f457600080fd5b50610225610c27565b34801561050957600080fd5b506102256004803603602081101561052057600080fd5b50356001600160a01b0316610c2d565b34801561053c57600080fd5b50610225610c3f565b34801561055157600080fd5b50610225610c74565b34801561056657600080fd5b506102256004803603602081101561057d57600080fd5b50356001600160a01b0316610c7a565b34801561059957600080fd5b50610225610c8c565b600854610100900460ff16156105b757600080fd5b600b546001600160a01b031673eeeeeeeeeeeeeeeeeeeeeeeeeeeeeeeeeeeeeeee146105e257600080fd5b60006105ed3461090c565b905060006105fb3483610c92565b9050811561060d5761060d8383610cdd565b801561064b576040516001600160a01b0384169082156108fc029083906000818181858888f19350505050158015610649573d6000803e3d6000fd5b505b505050565b61065a33826106e5565b50565b60005481565b600854610100900460ff1681565b60065481565b60075481565b6000610687610b0f565b61068f610976565b11156106a45761069d610976565b90506106af565b6106ac610b0f565b90505b90565b60006106bc61067d565b6106c4610976565b1015905090565b600b546001600160a01b031681565b6106e3336105a2565b565b600260095414156106f557600080fd5b6002600955600854610100900460ff161561070f57600080fd5b600b546001600160a01b031673eeeeeeeeeeeeeeeeeeeeeeeeeeeeeeeeeeeeeeee141561073b57600080fd5b60006107468261090c565b9050801561076f57600b54610765906001600160a01b03168483610d9c565b61076f8382610cdd565b5050600160095550565b6000806107b861078761067d565b6001600160a01b0385166000908152600d60205260409020546107b290670de0b6b3a7640000610ec4565b90610f1d565b336000908152600e60205260409020549091506107d6908290610c92565b9150505b919050565b600c546001600160a01b031681565b600260095414156107fe57600080fd5b6002600955600854610100900460ff161561081857600080fd5b6108206106b2565b1561084a57600b54600c54600654610845926001600160a01b03908116921690610f5f565b6108f6565b60065415801561085b575060005442105b1561088057600a54600c54600454610845926001600160a01b03908116921690610f5f565b60015442116108d6576040805162461bcd60e51b815260206004820152601860248201527f41756374696f6e206e6f742066696e6973686564207965740000000000000000604482015290519081900360640190fd5b600a54600c546004546108f6926001600160a01b03908116921690610f5f565b6008805461ff0019166101001790556001600955565b60008061092f670de0b6b3a76400006107b261092661067d565b60045490610ec4565b90508061094784600654610fcb90919063ffffffff16565b11156109635760065461095b908290610c92565b9150506107da565b5090919050565b60045481565b60035481565b60006106ac6004546107b2670de0b6b3a7640000600654610ec490919063ffffffff16565b60006109a56106b2565b806106ac575050600154421190565b600260095414156109c457600080fd5b60026009556109d16106b2565b15610a845760006109e133610779565b905060008111610a2d576040805162461bcd60e51b81526020600482015260126024820152714e6f20746f6b656e7320746f20636c61696d60701b604482015290519081900360640190fd5b336000908152600e6020526040902054610a479082610fcb565b336000908152600e6020526040902055600754610a649082610fcb565b600755600a54610a7e906001600160a01b03163383610f5f565b50610ad7565b6001544211610a9257600080fd5b336000908152600d602052604090205480610aac57600080fd5b336000818152600d6020526040812055600b54610ad5916001600160a01b039091169083610f5f565b505b6001600955565b60006106ac610aeb61067d565b6006546107b290670de0b6b3a7640000610ec4565b600a546001600160a01b031681565b600080544211610b2257506002546106af565b6001544210610b3457506003546106af565b6106ac611025565b60085460ff1615610b4c57600080fd5b858511610b5857600080fd5b60008211610b6557600080fd5b600a80546001600160a01b03808b166001600160a01b031992831617909255600b805487841690831617905560048990556000888155600188815560028790556003869055600c80549486169490931693909317909155600991909155610bcc8484610c92565b90506000610be7600054600154610c9290919063ffffffff16565b9050610bf38282610f1d565b600555600a54610c0d906001600160a01b03168c8b610d9c565b50506008805460ff19166001179055505050505050505050565b60015481565b600e6020526000908152604090205481565b600080610c4a610ade565b90506004548110610c5f5760009150506106af565b600454610c6c9082610c92565b9150506106af565b60055481565b600d6020526000908152604090205481565b60025481565b6000610cd483836040518060400160405280601e81526020017f536166654d6174683a207375627472616374696f6e206f766572666c6f77000081525061106d565b90505b92915050565b6000544210158015610cf157506001544211155b610cfa57600080fd5b6001600160a01b0382166000908152600d6020526040902054610d1d9082610fcb565b6001600160a01b0383166000908152600d6020526040902055600654610d439082610fcb565b6006557f2708a7a3988eeb427740f4fc8a40de05ea1ef186ec85ff11b09d8c486ca4a0038282610d71611025565b604080516001600160a01b039094168452602084019290925282820152519081900360600190a15050565b604080516001600160a01b038481166024830152306044830152606480830185905283518084039091018152608490920183526020820180516001600160e01b03166323b872dd60e01b178152925182516000946060949389169392918291908083835b60208310610e1f5780518252601f199092019160209182019101610e00565b6001836020036101000a0380198251168184511680821785525050505050509050019150506000604051808303816000865af19150503d8060008114610e81576040519150601f19603f3d011682016040523d82523d6000602084013e610e86565b606091505b5091509150818015610eb4575080511580610eb45750808060200190516020811015610eb157600080fd5b50515b610ebd57600080fd5b5050505050565b600082610ed357506000610cd7565b82820282848281610ee057fe5b0414610cd45760405162461bcd60e51b81526004018080602001828103825260218152602001806111e66021913960400191505060405180910390fd5b6000610cd483836040518060400160405280601a81526020017f536166654d6174683a206469766973696f6e206279207a65726f000000000000815250611104565b6001600160a01b03831673eeeeeeeeeeeeeeeeeeeeeeeeeeeeeeeeeeeeeeee1415610fc0576040516001600160a01b0383169082156108fc029083906000818181858888f19350505050158015610fba573d6000803e3d6000fd5b5061064b565b61064b838383611169565b600082820183811015610cd4576040805162461bcd60e51b815260206004820152601b60248201527f536166654d6174683a206164646974696f6e206f766572666c6f770000000000604482015290519081900360640190fd5b60008061103d60005442610c9290919063ffffffff16565b9050600061105660055483610ec490919063ffffffff16565b6002549091506110669082610c92565b9250505090565b600081848411156110fc5760405162461bcd60e51b81526004018080602001828103825283818151815260200191508051906020019080838360005b838110156110c15781810151838201526020016110a9565b50505050905090810190601f1680156110ee5780820380516001836020036101000a031916815260200191505b509250505060405180910390fd5b505050900390565b600081836111535760405162461bcd60e51b81526020600482018181528351602484015283519092839260449091019190850190808383600083156110c15781810151838201526020016110a9565b50600083858161115f57fe5b0495945050505050565b604080516001600160a01b038481166024830152604480830185905283518084039091018152606490920183526020820180516001600160e01b031663a9059cbb60e01b1781529251825160009460609493891693929182919080838360208310610e1f5780518252601f199092019160209182019101610e0056fe536166654d6174683a206d756c7469706c69636174696f6e206f766572666c6f77a2646970667358221220596185b95c4c4d2b61bbf4fc8a532c705dced8a3971ae062f30c0269ef2c938064736f6c634300060c0033",
  "bytecodeSha1": "35316b2d73cd5501b01e7318284d22fd64b7e442",
  "compiler": {
    "evm_version": "istanbul",
    "optimizer": {
      "enabled": true,
      "runs": 200
    },
    "version": "0.6.12"
  },
  "contractName": "DutchSwapAuction",
  "language": "Solidity",
  "natspec": {
    "kind": "dev",
    "methods": {
      "auctionEnded()": {
        "details": "able to claim early if auction is successful",
        "notice": "Returns bool if successful or time has ended"
      },
      "auctionSuccessful()": {
        "notice": "Successful if tokens sold equals totalTokens"
      },
      "calculateCommitment(uint256)": {
        "notice": "Returns the amout able to be committed during an auction"
      },
      "clearingPrice()": {
        "notice": "The current clearing price of the Dutch auction"
      },
      "commitEth()": {
        "details": "Needs extra gas limit for additional state changes"
      },
      "commitEthFrom(address)": {
        "notice": "Commit ETH to buy tokens for any address"
      },
      "commitTokens(uint256)": {
        "notice": "Commit approved ERC20 tokens to buy tokens on sale"
      },
      "commitTokensFrom(address,uint256)": {
        "details": "Users must approve contract prior to committing tokens to auction"
      },
      "finaliseAuction()": {
        "details": "Transfer contract funds to initialised wallet.",
        "notice": "Auction finishes successfully above the reserve"
      },
      "initDutchAuction(address,address,uint256,uint256,uint256,address,uint256,uint256,address)": {
        "details": "Init function"
      },
      "priceFunction()": {
        "notice": "Returns price during the auction"
      },
      "tokenPrice()": {
        "notice": "The average price of each token from all commitments."
      },
      "tokensClaimable(address)": {
        "notice": "How many tokens the user is able to claim"
      },
      "tokensRemaining()": {
        "notice": "Total amount of tokens remaining"
      },
      "totalTokensCommitted()": {
        "notice": "Total amount of tokens committed at current auction price–"
      },
      "withdrawTokens()": {
        "notice": "Withdraw your tokens once the Auction has ended."
      }
    },
    "stateVariables": {
      "ETH_ADDRESS": {
        "details": "The placeholder ETH address."
      }
    },
    "version": 1
  },
  "opcodes": "PUSH1 0x80 PUSH1 0x40 MSTORE PUSH1 0x4 CALLDATASIZE LT PUSH2 0x1D1 JUMPI PUSH1 0x0 CALLDATALOAD PUSH1 0xE0 SHR DUP1 PUSH4 0x7E1C0C09 GT PUSH2 0xF7 JUMPI DUP1 PUSH4 0xA9D87EE6 GT PUSH2 0x95 JUMPI DUP1 PUSH4 0xC8B08125 GT PUSH2 0x64 JUMPI DUP1 PUSH4 0xC8B08125 EQ PUSH2 0x530 JUMPI DUP1 PUSH4 0xD7568B6E EQ PUSH2 0x545 JUMPI DUP1 PUSH4 0xE8FCF723 EQ PUSH2 0x55A JUMPI DUP1 PUSH4 0xF1A9AF89 EQ PUSH2 0x58D JUMPI PUSH2 0x1E1 JUMP JUMPDEST DUP1 PUSH4 0xA9D87EE6 EQ PUSH2 0x466 JUMPI DUP1 PUSH4 0xAB6C07C6 EQ PUSH2 0x47B JUMPI DUP1 PUSH4 0xC24A0F8B EQ PUSH2 0x4E8 JUMPI DUP1 PUSH4 0xC884EF83 EQ PUSH2 0x4FD JUMPI PUSH2 0x1E1 JUMP JUMPDEST DUP1 PUSH4 0x86433374 GT PUSH2 0xD1 JUMPI DUP1 PUSH4 0x86433374 EQ PUSH2 0x412 JUMPI DUP1 PUSH4 0x8D8F2ADB EQ PUSH2 0x427 JUMPI DUP1 PUSH4 0x919E93B5 EQ PUSH2 0x43C JUMPI DUP1 PUSH4 0x99FDB320 EQ PUSH2 0x451 JUMPI PUSH2 0x1E1 JUMP JUMPDEST DUP1 PUSH4 0x7E1C0C09 EQ PUSH2 0x3D3 JUMPI DUP1 PUSH4 0x7F386B6C EQ PUSH2 0x3E8 JUMPI DUP1 PUSH4 0x7FF9B596 EQ PUSH2 0x3FD JUMPI PUSH2 0x1E1 JUMP JUMPDEST DUP1 PUSH4 0x36D0054B GT PUSH2 0x16F JUMPI DUP1 PUSH4 0x4DC80E15 GT PUSH2 0x13E JUMPI DUP1 PUSH4 0x4DC80E15 EQ PUSH2 0x34C JUMPI DUP1 PUSH4 0x521EB273 EQ PUSH2 0x37F JUMPI DUP1 PUSH4 0x5228733F EQ PUSH2 0x394 JUMPI DUP1 PUSH4 0x73973FCB EQ PUSH2 0x3A9 JUMPI PUSH2 0x1E1 JUMP JUMPDEST DUP1 PUSH4 0x36D0054B EQ PUSH2 0x2C5 JUMPI DUP1 PUSH4 0x3D15CC6D EQ PUSH2 0x2DA JUMPI DUP1 PUSH4 0x45DC13F3 EQ PUSH2 0x30B JUMPI DUP1 PUSH4 0x46467839 EQ PUSH2 0x313 JUMPI PUSH2 0x1E1 JUMP JUMPDEST DUP1 PUSH4 0x23BB46B6 GT PUSH2 0x1AB JUMPI DUP1 PUSH4 0x23BB46B6 EQ PUSH2 0x260 JUMPI DUP1 PUSH4 0x2897A6B9 EQ PUSH2 0x275 JUMPI DUP1 PUSH4 0x2B3853BD EQ PUSH2 0x29B JUMPI DUP1 PUSH4 0x32A0F2D7 EQ PUSH2 0x2B0 JUMPI PUSH2 0x1E1 JUMP JUMPDEST DUP1 PUSH4 0x482A787 EQ PUSH2 0x1E6 JUMPI DUP1 PUSH4 0xB97BC86 EQ PUSH2 0x210 JUMPI DUP1 PUSH4 0x214BB60F EQ PUSH2 0x237 JUMPI PUSH2 0x1E1 JUMP JUMPDEST CALLDATASIZE PUSH2 0x1E1 JUMPI PUSH2 0x1DF CALLER PUSH2 0x5A2 JUMP JUMPDEST STOP JUMPDEST PUSH1 0x0 DUP1 REVERT JUMPDEST CALLVALUE DUP1 ISZERO PUSH2 0x1F2 JUMPI PUSH1 0x0 DUP1 REVERT JUMPDEST POP PUSH2 0x1DF PUSH1 0x4 DUP1 CALLDATASIZE SUB PUSH1 0x20 DUP2 LT ISZERO PUSH2 0x209 JUMPI PUSH1 0x0 DUP1 REVERT JUMPDEST POP CALLDATALOAD PUSH2 0x650 JUMP JUMPDEST CALLVALUE DUP1 ISZERO PUSH2 0x21C JUMPI PUSH1 0x0 DUP1 REVERT JUMPDEST POP PUSH2 0x225 PUSH2 0x65D JUMP JUMPDEST PUSH1 0x40 DUP1 MLOAD SWAP2 DUP3 MSTORE MLOAD SWAP1 DUP2 SWAP1 SUB PUSH1 0x20 ADD SWAP1 RETURN JUMPDEST CALLVALUE DUP1 ISZERO PUSH2 0x243 JUMPI PUSH1 0x0 DUP1 REVERT JUMPDEST POP PUSH2 0x24C PUSH2 0x663 JUMP JUMPDEST PUSH1 0x40 DUP1 MLOAD SWAP2 ISZERO ISZERO DUP3 MSTORE MLOAD SWAP1 DUP2 SWAP1 SUB PUSH1 0x20 ADD SWAP1 RETURN JUMPDEST CALLVALUE DUP1 ISZERO PUSH2 0x26C JUMPI PUSH1 0x0 DUP1 REVERT JUMPDEST POP PUSH2 0x225 PUSH2 0x671 JUMP JUMPDEST PUSH2 0x1DF PUSH1 0x4 DUP1 CALLDATASIZE SUB PUSH1 0x20 DUP2 LT ISZERO PUSH2 0x28B JUMPI PUSH1 0x0 DUP1 REVERT JUMPDEST POP CALLDATALOAD PUSH1 0x1 PUSH1 0x1 PUSH1 0xA0 SHL SUB AND PUSH2 0x5A2 JUMP JUMPDEST CALLVALUE DUP1 ISZERO PUSH2 0x2A7 JUMPI PUSH1 0x0 DUP1 REVERT JUMPDEST POP PUSH2 0x225 PUSH2 0x677 JUMP JUMPDEST CALLVALUE DUP1 ISZERO PUSH2 0x2BC JUMPI PUSH1 0x0 DUP1 REVERT JUMPDEST POP PUSH2 0x225 PUSH2 0x67D JUMP JUMPDEST CALLVALUE DUP1 ISZERO PUSH2 0x2D1 JUMPI PUSH1 0x0 DUP1 REVERT JUMPDEST POP PUSH2 0x24C PUSH2 0x6B2 JUMP JUMPDEST CALLVALUE DUP1 ISZERO PUSH2 0x2E6 JUMPI PUSH1 0x0 DUP1 REVERT JUMPDEST POP PUSH2 0x2EF PUSH2 0x6CB JUMP JUMPDEST PUSH1 0x40 DUP1 MLOAD PUSH1 0x1 PUSH1 0x1 PUSH1 0xA0 SHL SUB SWAP1 SWAP3 AND DUP3 MSTORE MLOAD SWAP1 DUP2 SWAP1 SUB PUSH1 0x20 ADD SWAP1 RETURN JUMPDEST PUSH2 0x1DF PUSH2 0x6DA JUMP JUMPDEST CALLVALUE DUP1 ISZERO PUSH2 0x31F JUMPI PUSH1 0x0 DUP1 REVERT JUMPDEST POP PUSH2 0x1DF PUSH1 0x4 DUP1 CALLDATASIZE SUB PUSH1 0x40 DUP2 LT ISZERO PUSH2 0x336 JUMPI PUSH1 0x0 DUP1 REVERT JUMPDEST POP PUSH1 0x1 PUSH1 0x1 PUSH1 0xA0 SHL SUB DUP2 CALLDATALOAD AND SWAP1 PUSH1 0x20 ADD CALLDATALOAD PUSH2 0x6E5 JUMP JUMPDEST CALLVALUE DUP1 ISZERO PUSH2 0x358 JUMPI PUSH1 0x0 DUP1 REVERT JUMPDEST POP PUSH2 0x225 PUSH1 0x4 DUP1 CALLDATASIZE SUB PUSH1 0x20 DUP2 LT ISZERO PUSH2 0x36F JUMPI PUSH1 0x0 DUP1 REVERT JUMPDEST POP CALLDATALOAD PUSH1 0x1 PUSH1 0x1 PUSH1 0xA0 SHL SUB AND PUSH2 0x779 JUMP JUMPDEST CALLVALUE DUP1 ISZERO PUSH2 0x38B JUMPI PUSH1 0x0 DUP1 REVERT JUMPDEST POP PUSH2 0x2EF PUSH2 0x7DF JUMP JUMPDEST CALLVALUE DUP1 ISZERO PUSH2 0x3A0 JUMPI PUSH1 0x0 DUP1 REVERT JUMPDEST POP PUSH2 0x1DF PUSH2 0x7EE JUMP JUMPDEST CALLVALUE DUP1 ISZERO PUSH2 0x3B5 JUMPI PUSH1 0x0 DUP1 REVERT JUMPDEST POP PUSH2 0x225 PUSH1 0x4 DUP1 CALLDATASIZE SUB PUSH1 0x20 DUP2 LT ISZERO PUSH2 0x3CC JUMPI PUSH1 0x0 DUP1 REVERT JUMPDEST POP CALLDATALOAD PUSH2 0x90C JUMP JUMPDEST CALLVALUE DUP1 ISZERO PUSH2 0x3DF JUMPI PUSH1 0x0 DUP1 REVERT JUMPDEST POP PUSH2 0x225 PUSH2 0x96A JUMP JUMPDEST CALLVALUE DUP1 ISZERO PUSH2 0x3F4 JUMPI PUSH1 0x0 DUP1 REVERT JUMPDEST POP PUSH2 0x225 PUSH2 0x970 JUMP JUMPDEST CALLVALUE DUP1 ISZERO PUSH2 0x409 JUMPI PUSH1 0x0 DUP1 REVERT JUMPDEST POP PUSH2 0x225 PUSH2 0x976 JUMP JUMPDEST CALLVALUE DUP1 ISZERO PUSH2 0x41E JUMPI PUSH1 0x0 DUP1 REVERT JUMPDEST POP PUSH2 0x24C PUSH2 0x99B JUMP JUMPDEST CALLVALUE DUP1 ISZERO PUSH2 0x433 JUMPI PUSH1 0x0 DUP1 REVERT JUMPDEST POP PUSH2 0x1DF PUSH2 0x9B4 JUMP JUMPDEST CALLVALUE DUP1 ISZERO PUSH2 0x448 JUMPI PUSH1 0x0 DUP1 REVERT JUMPDEST POP PUSH2 0x225 PUSH2 0xADE JUMP JUMPDEST CALLVALUE DUP1 ISZERO PUSH2 0x45D JUMPI PUSH1 0x0 DUP1 REVERT JUMPDEST POP PUSH2 0x2EF PUSH2 0xB00 JUMP JUMPDEST CALLVALUE DUP1 ISZERO PUSH2 0x472 JUMPI PUSH1 0x0 DUP1 REVERT JUMPDEST POP PUSH2 0x225 PUSH2 0xB0F JUMP JUMPDEST CALLVALUE DUP1 ISZERO PUSH2 0x487 JUMPI PUSH1 0x0 DUP1 REVERT JUMPDEST POP PUSH2 0x1DF PUSH1 0x4 DUP1 CALLDATASIZE SUB PUSH2 0x120 DUP2 LT ISZERO PUSH2 0x49F JUMPI PUSH1 0x0 DUP1 REVERT JUMPDEST POP PUSH1 0x1 PUSH1 0x1 PUSH1 0xA0 SHL SUB DUP2 CALLDATALOAD DUP2 AND SWAP2 PUSH1 0x20 DUP2 ADD CALLDATALOAD DUP3 AND SWAP2 PUSH1 0x40 DUP3 ADD CALLDATALOAD SWAP2 PUSH1 0x60 DUP2 ADD CALLDATALOAD SWAP2 PUSH1 0x80 DUP3 ADD CALLDATALOAD SWAP2 PUSH1 0xA0 DUP2 ADD CALLDATALOAD DUP3 AND SWAP2 PUSH1 0xC0 DUP3 ADD CALLDATALOAD SWAP2 PUSH1 0xE0 DUP2 ADD CALLDATALOAD SWAP2 PUSH2 0x100 SWAP1 SWAP2 ADD CALLDATALOAD AND PUSH2 0xB3C JUMP JUMPDEST CALLVALUE DUP1 ISZERO PUSH2 0x4F4 JUMPI PUSH1 0x0 DUP1 REVERT JUMPDEST POP PUSH2 0x225 PUSH2 0xC27 JUMP JUMPDEST CALLVALUE DUP1 ISZERO PUSH2 0x509 JUMPI PUSH1 0x0 DUP1 REVERT JUMPDEST POP PUSH2 0x225 PUSH1 0x4 DUP1 CALLDATASIZE SUB PUSH1 0x20 DUP2 LT ISZERO PUSH2 0x520 JUMPI PUSH1 0x0 DUP1 REVERT JUMPDEST POP CALLDATALOAD PUSH1 0x1 PUSH1 0x1 PUSH1 0xA0 SHL SUB AND PUSH2 0xC2D JUMP JUMPDEST CALLVALUE DUP1 ISZERO PUSH2 0x53C JUMPI PUSH1 0x0 DUP1 REVERT JUMPDEST POP PUSH2 0x225 PUSH2 0xC3F JUMP JUMPDEST CALLVALUE DUP1 ISZERO PUSH2 0x551 JUMPI PUSH1 0x0 DUP1 REVERT JUMPDEST POP PUSH2 0x225 PUSH2 0xC74 JUMP JUMPDEST CALLVALUE DUP1 ISZERO PUSH2 0x566 JUMPI PUSH1 0x0 DUP1 REVERT JUMPDEST POP PUSH2 0x225 PUSH1 0x4 DUP1 CALLDATASIZE SUB PUSH1 0x20 DUP2 LT ISZERO PUSH2 0x57D JUMPI PUSH1 0x0 DUP1 REVERT JUMPDEST POP CALLDATALOAD PUSH1 0x1 PUSH1 0x1 PUSH1 0xA0 SHL SUB AND PUSH2 0xC7A JUMP JUMPDEST CALLVALUE DUP1 ISZERO PUSH2 0x599 JUMPI PUSH1 0x0 DUP1 REVERT JUMPDEST POP PUSH2 0x225 PUSH2 0xC8C JUMP JUMPDEST PUSH1 0x8 SLOAD PUSH2 0x100 SWAP1 DIV PUSH1 0xFF AND ISZERO PUSH2 0x5B7 JUMPI PUSH1 0x0 DUP1 REVERT JUMPDEST PUSH1 0xB SLOAD PUSH1 0x1 PUSH1 0x1 PUSH1 0xA0 SHL SUB AND PUSH20 0xEEEEEEEEEEEEEEEEEEEEEEEEEEEEEEEEEEEEEEEE EQ PUSH2 0x5E2 JUMPI PUSH1 0x0 DUP1 REVERT JUMPDEST PUSH1 0x0 PUSH2 0x5ED CALLVALUE PUSH2 0x90C JUMP JUMPDEST SWAP1 POP PUSH1 0x0 PUSH2 0x5FB CALLVALUE DUP4 PUSH2 0xC92 JUMP JUMPDEST SWAP1 POP DUP2 ISZERO PUSH2 0x60D JUMPI PUSH2 0x60D DUP4 DUP4 PUSH2 0xCDD JUMP JUMPDEST DUP1 ISZERO PUSH2 0x64B JUMPI PUSH1 0x40 MLOAD PUSH1 0x1 PUSH1 0x1 PUSH1 0xA0 SHL SUB DUP5 AND SWAP1 DUP3 ISZERO PUSH2 0x8FC MUL SWAP1 DUP4 SWAP1 PUSH1 0x0 DUP2 DUP2 DUP2 DUP6 DUP9 DUP9 CALL SWAP4 POP POP POP POP ISZERO DUP1 ISZERO PUSH2 0x649 JUMPI RETURNDATASIZE PUSH1 0x0 DUP1 RETURNDATACOPY RETURNDATASIZE PUSH1 0x0 REVERT JUMPDEST POP JUMPDEST POP POP POP JUMP JUMPDEST PUSH2 0x65A CALLER DUP3 PUSH2 0x6E5 JUMP JUMPDEST POP JUMP JUMPDEST PUSH1 0x0 SLOAD DUP2 JUMP JUMPDEST PUSH1 0x8 SLOAD PUSH2 0x100 SWAP1 DIV PUSH1 0xFF AND DUP2 JUMP JUMPDEST PUSH1 0x6 SLOAD DUP2 JUMP JUMPDEST PUSH1 0x7 SLOAD DUP2 JUMP JUMPDEST PUSH1 0x0 PUSH2 0x687 PUSH2 0xB0F JUMP JUMPDEST PUSH2 0x68F PUSH2 0x976 JUMP JUMPDEST GT ISZERO PUSH2 0x6A4 JUMPI PUSH2 0x69D PUSH2 0x976 JUMP JUMPDEST SWAP1 POP PUSH2 0x6AF JUMP JUMPDEST PUSH2 0x6AC PUSH2 0xB0F JUMP JUMPDEST SWAP1 POP JUMPDEST SWAP1 JUMP JUMPDEST PUSH1 0x0 PUSH2 0x6BC PUSH2 0x67D JUMP JUMPDEST PUSH2 0x6C4 PUSH2 0x976 JUMP JUMPDEST LT ISZERO SWAP1 POP SWAP1 JUMP JUMPDEST PUSH1 0xB SLOAD PUSH1 0x1 PUSH1 0x1 PUSH1 0xA0 SHL SUB AND DUP2 JUMP JUMPDEST PUSH2 0x6E3 CALLER PUSH2 0x5A2 JUMP JUMPDEST JUMP JUMPDEST PUSH1 0x2 PUSH1 0x9 SLOAD EQ ISZERO PUSH2 0x6F5 JUMPI PUSH1 0x0 DUP1 REVERT JUMPDEST PUSH1 0x2 PUSH1 0x9 SSTORE PUSH1 0x8 SLOAD PUSH2 0x100 SWAP1 DIV PUSH1 0xFF AND ISZERO PUSH2 0x70F JUMPI PUSH1 0x0 DUP1 REVERT JUMPDEST PUSH1 0xB SLOAD PUSH1 0x1 PUSH1 0x1 PUSH1 0xA0 SHL SUB AND PUSH20 0xEEEEEEEEEEEEEEEEEEEEEEEEEEEEEEEEEEEEEEEE EQ ISZERO PUSH2 0x73B JUMPI PUSH1 0x0 DUP1 REVERT JUMPDEST PUSH1 0x0 PUSH2 0x746 DUP3 PUSH2 0x90C JUMP JUMPDEST SWAP1 POP DUP1 ISZERO PUSH2 0x76F JUMPI PUSH1 0xB SLOAD PUSH2 0x765 SWAP1 PUSH1 0x1 PUSH1 0x1 PUSH1 0xA0 SHL SUB AND DUP5 DUP4 PUSH2 0xD9C JUMP JUMPDEST PUSH2 0x76F DUP4 DUP3 PUSH2 0xCDD JUMP JUMPDEST POP POP PUSH1 0x1 PUSH1 0x9 SSTORE POP JUMP JUMPDEST PUSH1 0x0 DUP1 PUSH2 0x7B8 PUSH2 0x787 PUSH2 0x67D JUMP JUMPDEST PUSH1 0x1 PUSH1 0x1 PUSH1 0xA0 SHL SUB DUP6 AND PUSH1 0x0 SWAP1 DUP2 MSTORE PUSH1 0xD PUSH1 0x20 MSTORE PUSH1 0x40 SWAP1 KECCAK256 SLOAD PUSH2 0x7B2 SWAP1 PUSH8 0xDE0B6B3A7640000 PUSH2 0xEC4 JUMP JUMPDEST SWAP1 PUSH2 0xF1D JUMP JUMPDEST CALLER PUSH1 0x0 SWAP1 DUP2 MSTORE PUSH1 0xE PUSH1 0x20 MSTORE PUSH1 0x40 SWAP1 KECCAK256 SLOAD SWAP1 SWAP2 POP PUSH2 0x7D6 SWAP1 DUP3 SWAP1 PUSH2 0xC92 JUMP JUMPDEST SWAP2 POP POP JUMPDEST SWAP2 SWAP1 POP JUMP JUMPDEST PUSH1 0xC SLOAD PUSH1 0x1 PUSH1 0x1 PUSH1 0xA0 SHL SUB AND DUP2 JUMP JUMPDEST PUSH1 0x2 PUSH1 0x9 SLOAD EQ ISZERO PUSH2 0x7FE JUMPI PUSH1 0x0 DUP1 REVERT JUMPDEST PUSH1 0x2 PUSH1 0x9 SSTORE PUSH1 0x8 SLOAD PUSH2 0x100 SWAP1 DIV PUSH1 0xFF AND ISZERO PUSH2 0x818 JUMPI PUSH1 0x0 DUP1 REVERT JUMPDEST PUSH2 0x820 PUSH2 0x6B2 JUMP JUMPDEST ISZERO PUSH2 0x84A JUMPI PUSH1 0xB SLOAD PUSH1 0xC SLOAD PUSH1 0x6 SLOAD PUSH2 0x845 SWAP3 PUSH1 0x1 PUSH1 0x1 PUSH1 0xA0 SHL SUB SWAP1 DUP2 AND SWAP3 AND SWAP1 PUSH2 0xF5F JUMP JUMPDEST PUSH2 0x8F6 JUMP JUMPDEST PUSH1 0x6 SLOAD ISZERO DUP1 ISZERO PUSH2 0x85B JUMPI POP PUSH1 0x0 SLOAD TIMESTAMP LT JUMPDEST ISZERO PUSH2 0x880 JUMPI PUSH1 0xA SLOAD PUSH1 0xC SLOAD PUSH1 0x4 SLOAD PUSH2 0x845 SWAP3 PUSH1 0x1 PUSH1 0x1 PUSH1 0xA0 SHL SUB SWAP1 DUP2 AND SWAP3 AND SWAP1 PUSH2 0xF5F JUMP JUMPDEST PUSH1 0x1 SLOAD TIMESTAMP GT PUSH2 0x8D6 JUMPI PUSH1 0x40 DUP1 MLOAD PUSH3 0x461BCD PUSH1 0xE5 SHL DUP2 MSTORE PUSH1 0x20 PUSH1 0x4 DUP3 ADD MSTORE PUSH1 0x18 PUSH1 0x24 DUP3 ADD MSTORE PUSH32 0x41756374696F6E206E6F742066696E6973686564207965740000000000000000 PUSH1 0x44 DUP3 ADD MSTORE SWAP1 MLOAD SWAP1 DUP2 SWAP1 SUB PUSH1 0x64 ADD SWAP1 REVERT JUMPDEST PUSH1 0xA SLOAD PUSH1 0xC SLOAD PUSH1 0x4 SLOAD PUSH2 0x8F6 SWAP3 PUSH1 0x1 PUSH1 0x1 PUSH1 0xA0 SHL SUB SWAP1 DUP2 AND SWAP3 AND SWAP1 PUSH2 0xF5F JUMP JUMPDEST PUSH1 0x8 DUP1 SLOAD PUSH2 0xFF00 NOT AND PUSH2 0x100 OR SWAP1 SSTORE PUSH1 0x1 PUSH1 0x9 SSTORE JUMP JUMPDEST PUSH1 0x0 DUP1 PUSH2 0x92F PUSH8 0xDE0B6B3A7640000 PUSH2 0x7B2 PUSH2 0x926 PUSH2 0x67D JUMP JUMPDEST PUSH1 0x4 SLOAD SWAP1 PUSH2 0xEC4 JUMP JUMPDEST SWAP1 POP DUP1 PUSH2 0x947 DUP5 PUSH1 0x6 SLOAD PUSH2 0xFCB SWAP1 SWAP2 SWAP1 PUSH4 0xFFFFFFFF AND JUMP JUMPDEST GT ISZERO PUSH2 0x963 JUMPI PUSH1 0x6 SLOAD PUSH2 0x95B SWAP1 DUP3 SWAP1 PUSH2 0xC92 JUMP JUMPDEST SWAP2 POP POP PUSH2 0x7DA JUMP JUMPDEST POP SWAP1 SWAP2 SWAP1 POP JUMP JUMPDEST PUSH1 0x4 SLOAD DUP2 JUMP JUMPDEST PUSH1 0x3 SLOAD DUP2 JUMP JUMPDEST PUSH1 0x0 PUSH2 0x6AC PUSH1 0x4 SLOAD PUSH2 0x7B2 PUSH8 0xDE0B6B3A7640000 PUSH1 0x6 SLOAD PUSH2 0xEC4 SWAP1 SWAP2 SWAP1 PUSH4 0xFFFFFFFF AND JUMP JUMPDEST PUSH1 0x0 PUSH2 0x9A5 PUSH2 0x6B2 JUMP JUMPDEST DUP1 PUSH2 0x6AC JUMPI POP POP PUSH1 0x1 SLOAD TIMESTAMP GT SWAP1 JUMP JUMPDEST PUSH1 0x2 PUSH1 0x9 SLOAD EQ ISZERO PUSH2 0x9C4 JUMPI PUSH1 0x0 DUP1 REVERT JUMPDEST PUSH1 0x2 PUSH1 0x9 SSTORE PUSH2 0x9D1 PUSH2 0x6B2 JUMP JUMPDEST ISZERO PUSH2 0xA84 JUMPI PUSH1 0x0 PUSH2 0x9E1 CALLER PUSH2 0x779 JUMP JUMPDEST SWAP1 POP PUSH1 0x0 DUP2 GT PUSH2 0xA2D JUMPI PUSH1 0x40 DUP1 MLOAD PUSH3 0x461BCD PUSH1 0xE5 SHL DUP2 MSTORE PUSH1 0x20 PUSH1 0x4 DUP3 ADD MSTORE PUSH1 0x12 PUSH1 0x24 DUP3 ADD MSTORE PUSH18 0x4E6F20746F6B656E7320746F20636C61696D PUSH1 0x70 SHL PUSH1 0x44 DUP3 ADD MSTORE SWAP1 MLOAD SWAP1 DUP2 SWAP1 SUB PUSH1 0x64 ADD SWAP1 REVERT JUMPDEST CALLER PUSH1 0x0 SWAP1 DUP2 MSTORE PUSH1 0xE PUSH1 0x20 MSTORE PUSH1 0x40 SWAP1 KECCAK256 SLOAD PUSH2 0xA47 SWAP1 DUP3 PUSH2 0xFCB JUMP JUMPDEST CALLER PUSH1 0x0 SWAP1 DUP2 MSTORE PUSH1 0xE PUSH1 0x20 MSTORE PUSH1 0x40 SWAP1 KECCAK256 SSTORE PUSH1 0x7 SLOAD PUSH2 0xA64 SWAP1 DUP3 PUSH2 0xFCB JUMP JUMPDEST PUSH1 0x7 SSTORE PUSH1 0xA SLOAD PUSH2 0xA7E SWAP1 PUSH1 0x1 PUSH1 0x1 PUSH1 0xA0 SHL SUB AND CALLER DUP4 PUSH2 0xF5F JUMP JUMPDEST POP PUSH2 0xAD7 JUMP JUMPDEST PUSH1 0x1 SLOAD TIMESTAMP GT PUSH2 0xA92 JUMPI PUSH1 0x0 DUP1 REVERT JUMPDEST CALLER PUSH1 0x0 SWAP1 DUP2 MSTORE PUSH1 0xD PUSH1 0x20 MSTORE PUSH1 0x40 SWAP1 KECCAK256 SLOAD DUP1 PUSH2 0xAAC JUMPI PUSH1 0x0 DUP1 REVERT JUMPDEST CALLER PUSH1 0x0 DUP2 DUP2 MSTORE PUSH1 0xD PUSH1 0x20 MSTORE PUSH1 0x40 DUP2 KECCAK256 SSTORE PUSH1 0xB SLOAD PUSH2 0xAD5 SWAP2 PUSH1 0x1 PUSH1 0x1 PUSH1 0xA0 SHL SUB SWAP1 SWAP2 AND SWAP1 DUP4 PUSH2 0xF5F JUMP JUMPDEST POP JUMPDEST PUSH1 0x1 PUSH1 0x9 SSTORE JUMP JUMPDEST PUSH1 0x0 PUSH2 0x6AC PUSH2 0xAEB PUSH2 0x67D JUMP JUMPDEST PUSH1 0x6 SLOAD PUSH2 0x7B2 SWAP1 PUSH8 0xDE0B6B3A7640000 PUSH2 0xEC4 JUMP JUMPDEST PUSH1 0xA SLOAD PUSH1 0x1 PUSH1 0x1 PUSH1 0xA0 SHL SUB AND DUP2 JUMP JUMPDEST PUSH1 0x0 DUP1 SLOAD TIMESTAMP GT PUSH2 0xB22 JUMPI POP PUSH1 0x2 SLOAD PUSH2 0x6AF JUMP JUMPDEST PUSH1 0x1 SLOAD TIMESTAMP LT PUSH2 0xB34 JUMPI POP PUSH1 0x3 SLOAD PUSH2 0x6AF JUMP JUMPDEST PUSH2 0x6AC PUSH2 0x1025 JUMP JUMPDEST PUSH1 0x8 SLOAD PUSH1 0xFF AND ISZERO PUSH2 0xB4C JUMPI PUSH1 0x0 DUP1 REVERT JUMPDEST DUP6 DUP6 GT PUSH2 0xB58 JUMPI PUSH1 0x0 DUP1 REVERT JUMPDEST PUSH1 0x0 DUP3 GT PUSH2 0xB65 JUMPI PUSH1 0x0 DUP1 REVERT JUMPDEST PUSH1 0xA DUP1 SLOAD PUSH1 0x1 PUSH1 0x1 PUSH1 0xA0 SHL SUB DUP1 DUP12 AND PUSH1 0x1 PUSH1 0x1 PUSH1 0xA0 SHL SUB NOT SWAP3 DUP4 AND OR SWAP1 SWAP3 SSTORE PUSH1 0xB DUP1 SLOAD DUP8 DUP5 AND SWAP1 DUP4 AND OR SWAP1 SSTORE PUSH1 0x4 DUP10 SWAP1 SSTORE PUSH1 0x0 DUP9 DUP2 SSTORE PUSH1 0x1 DUP9 DUP2 SSTORE PUSH1 0x2 DUP8 SWAP1 SSTORE PUSH1 0x3 DUP7 SWAP1 SSTORE PUSH1 0xC DUP1 SLOAD SWAP5 DUP7 AND SWAP5 SWAP1 SWAP4 AND SWAP4 SWAP1 SWAP4 OR SWAP1 SWAP2 SSTORE PUSH1 0x9 SWAP2 SWAP1 SWAP2 SSTORE PUSH2 0xBCC DUP5 DUP5 PUSH2 0xC92 JUMP JUMPDEST SWAP1 POP PUSH1 0x0 PUSH2 0xBE7 PUSH1 0x0 SLOAD PUSH1 0x1 SLOAD PUSH2 0xC92 SWAP1 SWAP2 SWAP1 PUSH4 0xFFFFFFFF AND JUMP JUMPDEST SWAP1 POP PUSH2 0xBF3 DUP3 DUP3 PUSH2 0xF1D JUMP JUMPDEST PUSH1 0x5 SSTORE PUSH1 0xA SLOAD PUSH2 0xC0D SWAP1 PUSH1 0x1 PUSH1 0x1 PUSH1 0xA0 SHL SUB AND DUP13 DUP12 PUSH2 0xD9C JUMP JUMPDEST POP POP PUSH1 0x8 DUP1 SLOAD PUSH1 0xFF NOT AND PUSH1 0x1 OR SWAP1 SSTORE POP POP POP POP POP POP POP POP POP JUMP JUMPDEST PUSH1 0x1 SLOAD DUP2 JUMP JUMPDEST PUSH1 0xE PUSH1 0x20 MSTORE PUSH1 0x0 SWAP1 DUP2 MSTORE PUSH1 0x40 SWAP1 KECCAK256 SLOAD DUP2 JUMP JUMPDEST PUSH1 0x0 DUP1 PUSH2 0xC4A PUSH2 0xADE JUMP JUMPDEST SWAP1 POP PUSH1 0x4 SLOAD DUP2 LT PUSH2 0xC5F JUMPI PUSH1 0x0 SWAP2 POP POP PUSH2 0x6AF JUMP JUMPDEST PUSH1 0x4 SLOAD PUSH2 0xC6C SWAP1 DUP3 PUSH2 0xC92 JUMP JUMPDEST SWAP2 POP POP PUSH2 0x6AF JUMP JUMPDEST PUSH1 0x5 SLOAD DUP2 JUMP JUMPDEST PUSH1 0xD PUSH1 0x20 MSTORE PUSH1 0x0 SWAP1 DUP2 MSTORE PUSH1 0x40 SWAP1 KECCAK256 SLOAD DUP2 JUMP JUMPDEST PUSH1 0x2 SLOAD DUP2 JUMP JUMPDEST PUSH1 0x0 PUSH2 0xCD4 DUP4 DUP4 PUSH1 0x40 MLOAD DUP1 PUSH1 0x40 ADD PUSH1 0x40 MSTORE DUP1 PUSH1 0x1E DUP2 MSTORE PUSH1 0x20 ADD PUSH32 0x536166654D6174683A207375627472616374696F6E206F766572666C6F770000 DUP2 MSTORE POP PUSH2 0x106D JUMP JUMPDEST SWAP1 POP JUMPDEST SWAP3 SWAP2 POP POP JUMP JUMPDEST PUSH1 0x0 SLOAD TIMESTAMP LT ISZERO DUP1 ISZERO PUSH2 0xCF1 JUMPI POP PUSH1 0x1 SLOAD TIMESTAMP GT ISZERO JUMPDEST PUSH2 0xCFA JUMPI PUSH1 0x0 DUP1 REVERT JUMPDEST PUSH1 0x1 PUSH1 0x1 PUSH1 0xA0 SHL SUB DUP3 AND PUSH1 0x0 SWAP1 DUP2 MSTORE PUSH1 0xD PUSH1 0x20 MSTORE PUSH1 0x40 SWAP1 KECCAK256 SLOAD PUSH2 0xD1D SWAP1 DUP3 PUSH2 0xFCB JUMP JUMPDEST PUSH1 0x1 PUSH1 0x1 PUSH1 0xA0 SHL SUB DUP4 AND PUSH1 0x0 SWAP1 DUP2 MSTORE PUSH1 0xD PUSH1 0x20 MSTORE PUSH1 0x40 SWAP1 KECCAK256 SSTORE PUSH1 0x6 SLOAD PUSH2 0xD43 SWAP1 DUP3 PUSH2 0xFCB JUMP JUMPDEST PUSH1 0x6 SSTORE PUSH32 0x2708A7A3988EEB427740F4FC8A40DE05EA1EF186EC85FF11B09D8C486CA4A003 DUP3 DUP3 PUSH2 0xD71 PUSH2 0x1025 JUMP JUMPDEST PUSH1 0x40 DUP1 MLOAD PUSH1 0x1 PUSH1 0x1 PUSH1 0xA0 SHL SUB SWAP1 SWAP5 AND DUP5 MSTORE PUSH1 0x20 DUP5 ADD SWAP3 SWAP1 SWAP3 MSTORE DUP3 DUP3 ADD MSTORE MLOAD SWAP1 DUP2 SWAP1 SUB PUSH1 0x60 ADD SWAP1 LOG1 POP POP JUMP JUMPDEST PUSH1 0x40 DUP1 MLOAD PUSH1 0x1 PUSH1 0x1 PUSH1 0xA0 SHL SUB DUP5 DUP2 AND PUSH1 0x24 DUP4 ADD MSTORE ADDRESS PUSH1 0x44 DUP4 ADD MSTORE PUSH1 0x64 DUP1 DUP4 ADD DUP6 SWAP1 MSTORE DUP4 MLOAD DUP1 DUP5 SUB SWAP1 SWAP2 ADD DUP2 MSTORE PUSH1 0x84 SWAP1 SWAP3 ADD DUP4 MSTORE PUSH1 0x20 DUP3 ADD DUP1 MLOAD PUSH1 0x1 PUSH1 0x1 PUSH1 0xE0 SHL SUB AND PUSH4 0x23B872DD PUSH1 0xE0 SHL OR DUP2 MSTORE SWAP3 MLOAD DUP3 MLOAD PUSH1 0x0 SWAP5 PUSH1 0x60 SWAP5 SWAP4 DUP10 AND SWAP4 SWAP3 SWAP2 DUP3 SWAP2 SWAP1 DUP1 DUP4 DUP4 JUMPDEST PUSH1 0x20 DUP4 LT PUSH2 0xE1F JUMPI DUP1 MLOAD DUP3 MSTORE PUSH1 0x1F NOT SWAP1 SWAP3 ADD SWAP2 PUSH1 0x20 SWAP2 DUP3 ADD SWAP2 ADD PUSH2 0xE00 JUMP JUMPDEST PUSH1 0x1 DUP4 PUSH1 0x20 SUB PUSH2 0x100 EXP SUB DUP1 NOT DUP3 MLOAD AND DUP2 DUP5 MLOAD AND DUP1 DUP3 OR DUP6 MSTORE POP POP POP POP POP POP SWAP1 POP ADD SWAP2 POP POP PUSH1 0x0 PUSH1 0x40 MLOAD DUP1 DUP4 SUB DUP2 PUSH1 0x0 DUP7 GAS CALL SWAP2 POP POP RETURNDATASIZE DUP1 PUSH1 0x0 DUP2 EQ PUSH2 0xE81 JUMPI PUSH1 0x40 MLOAD SWAP2 POP PUSH1 0x1F NOT PUSH1 0x3F RETURNDATASIZE ADD AND DUP3 ADD PUSH1 0x40 MSTORE RETURNDATASIZE DUP3 MSTORE RETURNDATASIZE PUSH1 0x0 PUSH1 0x20 DUP5 ADD RETURNDATACOPY PUSH2 0xE86 JUMP JUMPDEST PUSH1 0x60 SWAP2 POP JUMPDEST POP SWAP2 POP SWAP2 POP DUP2 DUP1 ISZERO PUSH2 0xEB4 JUMPI POP DUP1 MLOAD ISZERO DUP1 PUSH2 0xEB4 JUMPI POP DUP1 DUP1 PUSH1 0x20 ADD SWAP1 MLOAD PUSH1 0x20 DUP2 LT ISZERO PUSH2 0xEB1 JUMPI PUSH1 0x0 DUP1 REVERT JUMPDEST POP MLOAD JUMPDEST PUSH2 0xEBD JUMPI PUSH1 0x0 DUP1 REVERT JUMPDEST POP POP POP POP POP JUMP JUMPDEST PUSH1 0x0 DUP3 PUSH2 0xED3 JUMPI POP PUSH1 0x0 PUSH2 0xCD7 JUMP JUMPDEST DUP3 DUP3 MUL DUP3 DUP5 DUP3 DUP2 PUSH2 0xEE0 JUMPI INVALID JUMPDEST DIV EQ PUSH2 0xCD4 JUMPI PUSH1 0x40 MLOAD PUSH3 0x461BCD PUSH1 0xE5 SHL DUP2 MSTORE PUSH1 0x4 ADD DUP1 DUP1 PUSH1 0x20 ADD DUP3 DUP2 SUB DUP3 MSTORE PUSH1 0x21 DUP2 MSTORE PUSH1 0x20 ADD DUP1 PUSH2 0x11E6 PUSH1 0x21 SWAP2 CODECOPY PUSH1 0x40 ADD SWAP2 POP POP PUSH1 0x40 MLOAD DUP1 SWAP2 SUB SWAP1 REVERT JUMPDEST PUSH1 0x0 PUSH2 0xCD4 DUP4 DUP4 PUSH1 0x40 MLOAD DUP1 PUSH1 0x40 ADD PUSH1 0x40 MSTORE DUP1 PUSH1 0x1A DUP2 MSTORE PUSH1 0x20 ADD PUSH32 0x536166654D6174683A206469766973696F6E206279207A65726F000000000000 DUP2 MSTORE POP PUSH2 0x1104 JUMP JUMPDEST PUSH1 0x1 PUSH1 0x1 PUSH1 0xA0 SHL SUB DUP4 AND PUSH20 0xEEEEEEEEEEEEEEEEEEEEEEEEEEEEEEEEEEEEEEEE EQ ISZERO PUSH2 0xFC0 JUMPI PUSH1 0x40 MLOAD PUSH1 0x1 PUSH1 0x1 PUSH1 0xA0 SHL SUB DUP4 AND SWAP1 DUP3 ISZERO PUSH2 0x8FC MUL SWAP1 DUP4 SWAP1 PUSH1 0x0 DUP2 DUP2 DUP2 DUP6 DUP9 DUP9 CALL SWAP4 POP POP POP POP ISZERO DUP1 ISZERO PUSH2 0xFBA JUMPI RETURNDATASIZE PUSH1 0x0 DUP1 RETURNDATACOPY RETURNDATASIZE PUSH1 0x0 REVERT JUMPDEST POP PUSH2 0x64B JUMP JUMPDEST PUSH2 0x64B DUP4 DUP4 DUP4 PUSH2 0x1169 JUMP JUMPDEST PUSH1 0x0 DUP3 DUP3 ADD DUP4 DUP2 LT ISZERO PUSH2 0xCD4 JUMPI PUSH1 0x40 DUP1 MLOAD PUSH3 0x461BCD PUSH1 0xE5 SHL DUP2 MSTORE PUSH1 0x20 PUSH1 0x4 DUP3 ADD MSTORE PUSH1 0x1B PUSH1 0x24 DUP3 ADD MSTORE PUSH32 0x536166654D6174683A206164646974696F6E206F766572666C6F770000000000 PUSH1 0x44 DUP3 ADD MSTORE SWAP1 MLOAD SWAP1 DUP2 SWAP1 SUB PUSH1 0x64 ADD SWAP1 REVERT JUMPDEST PUSH1 0x0 DUP1 PUSH2 0x103D PUSH1 0x0 SLOAD TIMESTAMP PUSH2 0xC92 SWAP1 SWAP2 SWAP1 PUSH4 0xFFFFFFFF AND JUMP JUMPDEST SWAP1 POP PUSH1 0x0 PUSH2 0x1056 PUSH1 0x5 SLOAD DUP4 PUSH2 0xEC4 SWAP1 SWAP2 SWAP1 PUSH4 0xFFFFFFFF AND JUMP JUMPDEST PUSH1 0x2 SLOAD SWAP1 SWAP2 POP PUSH2 0x1066 SWAP1 DUP3 PUSH2 0xC92 JUMP JUMPDEST SWAP3 POP POP POP SWAP1 JUMP JUMPDEST PUSH1 0x0 DUP2 DUP5 DUP5 GT ISZERO PUSH2 0x10FC JUMPI PUSH1 0x40 MLOAD PUSH3 0x461BCD PUSH1 0xE5 SHL DUP2 MSTORE PUSH1 0x4 ADD DUP1 DUP1 PUSH1 0x20 ADD DUP3 DUP2 SUB DUP3 MSTORE DUP4 DUP2 DUP2 MLOAD DUP2 MSTORE PUSH1 0x20 ADD SWAP2 POP DUP1 MLOAD SWAP1 PUSH1 0x20 ADD SWAP1 DUP1 DUP4 DUP4 PUSH1 0x0 JUMPDEST DUP4 DUP2 LT ISZERO PUSH2 0x10C1 JUMPI DUP2 DUP2 ADD MLOAD DUP4 DUP3 ADD MSTORE PUSH1 0x20 ADD PUSH2 0x10A9 JUMP JUMPDEST POP POP POP POP SWAP1 POP SWAP1 DUP2 ADD SWAP1 PUSH1 0x1F AND DUP1 ISZERO PUSH2 0x10EE JUMPI DUP1 DUP3 SUB DUP1 MLOAD PUSH1 0x1 DUP4 PUSH1 0x20 SUB PUSH2 0x100 EXP SUB NOT AND DUP2 MSTORE PUSH1 0x20 ADD SWAP2 POP JUMPDEST POP SWAP3 POP POP POP PUSH1 0x40 MLOAD DUP1 SWAP2 SUB SWAP1 REVERT JUMPDEST POP POP POP SWAP1 SUB SWAP1 JUMP JUMPDEST PUSH1 0x0 DUP2 DUP4 PUSH2 0x1153 JUMPI PUSH1 0x40 MLOAD PUSH3 0x461BCD PUSH1 0xE5 SHL DUP2 MSTORE PUSH1 0x20 PUSH1 0x4 DUP3 ADD DUP2 DUP2 MSTORE DUP4 MLOAD PUSH1 0x24 DUP5 ADD MSTORE DUP4 MLOAD SWAP1 SWAP3 DUP4 SWAP3 PUSH1 0x44 SWAP1 SWAP2 ADD SWAP2 SWAP1 DUP6 ADD SWAP1 DUP1 DUP4 DUP4 PUSH1 0x0 DUP4 ISZERO PUSH2 0x10C1 JUMPI DUP2 DUP2 ADD MLOAD DUP4 DUP3 ADD MSTORE PUSH1 0x20 ADD PUSH2 0x10A9 JUMP JUMPDEST POP PUSH1 0x0 DUP4 DUP6 DUP2 PUSH2 0x115F JUMPI INVALID JUMPDEST DIV SWAP6 SWAP5 POP POP POP POP POP JUMP JUMPDEST PUSH1 0x40 DUP1 MLOAD PUSH1 0x1 PUSH1 0x1 PUSH1 0xA0 SHL SUB DUP5 DUP2 AND PUSH1 0x24 DUP4 ADD MSTORE PUSH1 0x44 DUP1 DUP4 ADD DUP6 SWAP1 MSTORE DUP4 MLOAD DUP1 DUP5 SUB SWAP1 SWAP2 ADD DUP2 MSTORE PUSH1 0x64 SWAP1 SWAP3 ADD DUP4 MSTORE PUSH1 0x20 DUP3 ADD DUP1 MLOAD PUSH1 0x1 PUSH1 0x1 PUSH1 0xE0 SHL SUB AND PUSH4 0xA9059CBB PUSH1 0xE0 SHL OR DUP2 MSTORE SWAP3 MLOAD DUP3 MLOAD PUSH1 0x0 SWAP5 PUSH1 0x60 SWAP5 SWAP4 DUP10 AND SWAP4 SWAP3 SWAP2 DUP3 SWAP2 SWAP1 DUP1 DUP4 DUP4 PUSH1 0x20 DUP4 LT PUSH2 0xE1F JUMPI DUP1 MLOAD DUP3 MSTORE PUSH1 0x1F NOT SWAP1 SWAP3 ADD SWAP2 PUSH1 0x20 SWAP2 DUP3 ADD SWAP2 ADD PUSH2 0xE00 JUMP INVALID MSTORE8 PUSH2 0x6665 0x4D PUSH2 0x7468 GASPRICE KECCAK256 PUSH14 0x756C7469706C69636174696F6E20 PUSH16 0x766572666C6F77A26469706673582212 KECCAK256 MSIZE PUSH2 0x85B9 0x5C 0x4C 0x4D 0x2B PUSH2 0xBBF4 0xFC DUP11 MSTORE8 0x2C PUSH17 0x5DCED8A3971AE062F30C0269EF2C938064 PUSH20 0x6F6C634300060C00330000000000000000000000 ",
  "sha1": "cf69143e63081e4d5b0a44f667593584571e25aa",
  "source": "pragma solidity ^0.6.9;\n\n//:::::::::::::::::::::::::::::::::::::::::::::::::::::::::::::::::::::\n//::::::::::: @#::::::::::: @#:::::::::::: #@j:::::::::::::::::::::::::\n//::::::::::: ##::::::::::: @#:::::::::::: #@j:::::::::::::::::::::::::\n//::::::::::: ##::::::::::: @#:::::::::::: #@j:::::::::::::::::::::::::\n//::::: ########: ##:: ##:: DUTCh>: ihD%y: #@Whdqy:::::::::::::::::::::\n//::: ###... ###: ##:: ##:: @B... @@7...t: N@N.. R@K:::::::::::::::::::\n//::: ##::::: ##: ##:: ##:: @Q::: @Q.::::: N@j:: z@Q:::::::::::::::::::\n//:::: ##DuTCH##: .@QQ@@#:: hQQQh <R@QN@Q: N@j:: z@Q:::::::::::::::::::\n//::::::.......: =Q@y....:::....:::......::...:::...:::::::::::::::::::\n//:::::::::::::: h@W? sWAP@! 'DW;:::::: KK. ydSWAP@t: NNKNQBdt:::::::::\n//:::::::::::::: 'zqRqj*. L@R h@w: QQ: L@5 Q@... d@@: @@U... @Q::::::::\n//:::::::::::::::::...... Q@^ ^@@N@wt@BQ@ <@Q^::: @@: @@}::: @@::::::::\n//:::::::::::::::::: U@@QKt... D@@L.. B@Q.. KDUTCH@Q: @@QQ#QQq:::::::::\n//:::::::::::::::::::.....::::::...:::...::::.......: @@!.....:::::::::\n//::::::::::::::::::::::::::::::::::::::::::::::::::: @@!::::::::::::::\n//::::::::::::::::::::::::::::::::::::::::::::::::::: @@!::::::::::::::\n//::::::::::::::01101100:01101111:01101111:01101011::::::::::::::::::::\n//:::::01100100:01100101:01100101:01110000:01111001:01110010:::::::::::\n//:::::::::::::::::::::::::::::::::::::::::::::::::::::::::::::::::::::\n//\n// DutchSwap Auction V1.3.1\n//   Copyright (c) 2020 DutchSwap.com\n//\n// This program is free software: you can redistribute it and/or modify\n// it under the terms of the GNU General Public License as published by\n// the Free Software Foundation, either version 3 of the License\n//\n// This program is distributed in the hope that it will be useful,\n// but WITHOUT ANY WARRANTY; without even the implied warranty of\n// MERCHANTABILITY or FITNESS FOR A PARTICULAR PURPOSE.  See the\n// GNU General Public License for more details.\n//\n// You should have received a copy of the GNU General Public License\n// along with this program.\n// If not, see <https://github.com/deepyr/DutchSwap/>.\n//\n// The above copyright notice and this permission notice shall be\n// included in all copies or substantial portions of the Software.\n//\n// Authors:\n// * Adrian Guerrera / Deepyr Pty Ltd\n//\n// ---------------------------------------------------------------------\n// SPDX-License-Identifier: GPL-3.0-or-later\n// ---------------------------------------------------------------------\n\n\nimport \"@openzeppelin/contracts/math/SafeMath.sol\";\n\ncontract DutchSwapAuction  {\n\n    using SafeMath for uint256;\n    /// @dev The placeholder ETH address.\n    address private constant ETH_ADDRESS = 0xEeeeeEeeeEeEeeEeEeEeeEEEeeeeEeeeeeeeEEeE;\n\n    uint256 public startDate;\n    uint256 public endDate;\n    uint256 public startPrice;\n    uint256 public minimumPrice;\n    uint256 public totalTokens;  // Amount to be sold\n    uint256 public priceDrop; // Price reduction from startPrice at endDate\n    uint256 public commitmentsTotal;\n    uint256 public tokenWithdrawn;  // the amount of auction tokens already withdrawn\n    bool private initialised;\n    bool public finalised;\n    uint256 private constant _NOT_ENTERED = 1;\n    uint256 private constant _ENTERED = 2;\n    uint256 private _status;\n\n    address public auctionToken;\n    address public paymentCurrency;\n    address payable public wallet;  // Where the auction funds will get paid\n    mapping(address => uint256) public commitments;\n    mapping(address => uint256) public claimed;\n\n    event AddedCommitment(address addr, uint256 commitment, uint256 price);\n\n\n    /// @dev Prevents a contract from calling itself, directly or indirectly.\n    /// @dev https://eips.ethereum.org/EIPS/eip-2200)\n    modifier nonReentrant() {\n        require(_status != _ENTERED);          // ReentrancyGuard: reentrant call\n        _status = _ENTERED;\n        _;\n        _status = _NOT_ENTERED;\n    }\n\n    /// @dev Init function\n    function initDutchAuction(\n        address _funder,\n        address _token,\n        uint256 _totalTokens,\n        uint256 _startDate,\n        uint256 _endDate,\n        address _paymentCurrency,\n        uint256 _startPrice,\n        uint256 _minimumPrice,\n        address payable _wallet\n    )\n        external\n    {\n        require(!initialised);                // Already Initialised\n        require(_endDate > _startDate);       // End date earlier than start date\n        require(_minimumPrice > 0);           // Minimum price must be greater than 0\n\n        auctionToken = _token;\n        paymentCurrency = _paymentCurrency;\n\n        totalTokens = _totalTokens;\n        startDate = _startDate;\n        endDate = _endDate;\n        startPrice = _startPrice;\n        minimumPrice = _minimumPrice;\n        wallet = _wallet;\n        _status = _NOT_ENTERED;\n\n        uint256 numerator = startPrice.sub(minimumPrice);\n        uint256 denominator = endDate.sub(startDate);\n        priceDrop = numerator.div(denominator);\n\n        // There are many non-compliant ERC20 tokens... this can handle most, adapted from UniSwap V2\n        _safeTransferFrom(auctionToken, _funder, _totalTokens);\n        initialised = true;\n\n    }\n\n    // Dutch Auction Price Function\n    // ============================\n    //\n    // Start Price -----\n    //                   \\\n    //                    \\\n    //                     \\\n    //                      \\ ------------ Clearing Price\n    //                     / \\            = AmountRaised/TokenSupply\n    //      Token Price  --   \\\n    //                  /      \\\n    //                --        ----------- Minimum Price\n    // Amount raised /          End Time\n    //\n\n\n\n    /// @notice The average price of each token from all commitments.\n    function tokenPrice() public view returns (uint256) {\n        return commitmentsTotal.mul(1e18).div(totalTokens);\n    }\n\n      /// @notice Returns price during the auction\n    function priceFunction() public view returns (uint256) {\n        /// @dev Return Auction Price\n        if (block.timestamp <= startDate) {\n            return startPrice;\n        }\n        if (block.timestamp >= endDate) {\n            return minimumPrice;\n        }\n         return _currentPrice();\n    }\n\n    /// @notice The current clearing price of the Dutch auction\n    function clearingPrice() public view returns (uint256) {\n        /// @dev If auction successful, return tokenPrice\n        if (tokenPrice() > priceFunction()) {\n            return tokenPrice();\n        }\n        return priceFunction();\n    }\n\n    /// @notice How many tokens the user is able to claim\n    function tokensClaimable(address _user) public view returns (uint256) {\n        uint256 tokensAvailable = commitments[_user].mul(1e18).div(clearingPrice());\n        return tokensAvailable.sub(claimed[msg.sender]);\n    }\n\n    /// @notice Total amount of tokens committed at current auction price–\n    function totalTokensCommitted() public view returns(uint256) {\n        return commitmentsTotal.mul(1e18).div(clearingPrice());\n    }\n\n    /// @notice Total amount of tokens remaining\n    function tokensRemaining() public view returns (uint256) {\n        uint256 totalCommitted = totalTokensCommitted();\n        if (totalCommitted >= totalTokens ) {\n            return 0;\n        } else {\n            return totalTokens.sub(totalCommitted);\n        }\n    }\n\n    /// @notice Returns price during the auction\n    function _currentPrice() private view returns (uint256) {\n        uint256 elapsed = block.timestamp.sub(startDate);\n        uint256 priceDiff = elapsed.mul(priceDrop);\n        return startPrice.sub(priceDiff);\n    }\n\n    //--------------------------------------------------------\n    // Commit to buying tokens!\n    //--------------------------------------------------------\n\n    /// @notice Buy Tokens by committing ETH to this contract address\n    /// @dev Needs extra gas limit for additional state changes\n    receive () external payable {\n        commitEthFrom(msg.sender);\n    }\n\n    /// @dev Needs extra gas limit for additional state changes\n    function commitEth() public payable {\n        commitEthFrom(msg.sender);\n    }\n\n    /// @notice Commit ETH to buy tokens for any address\n    function commitEthFrom (address payable _from) public payable {\n        require(!finalised);                                  // Auction was cancelled\n        require(address(paymentCurrency) == ETH_ADDRESS);       // Payment currency is not ETH\n        // Get ETH able to be committed\n        uint256 ethToTransfer = calculateCommitment( msg.value);\n\n        // Accept ETH Payments\n        uint256 ethToRefund = msg.value.sub(ethToTransfer);\n        if (ethToTransfer > 0) {\n            _addCommitment(_from, ethToTransfer);\n        }\n        // Return any ETH to be refunded\n        if (ethToRefund > 0) {\n            _from.transfer(ethToRefund);\n        }\n    }\n\n    /// @notice Commit approved ERC20 tokens to buy tokens on sale\n    function commitTokens(uint256 _amount) public {\n        commitTokensFrom(msg.sender, _amount);\n    }\n\n    /// @dev Users must approve contract prior to committing tokens to auction\n    function commitTokensFrom(address _from, uint256 _amount) public nonReentrant {\n        require(!finalised);                                  // Auction was cancelled\n        require(address(paymentCurrency) != ETH_ADDRESS);          // Only token transfers\n        uint256 tokensToTransfer = calculateCommitment( _amount);\n        if (tokensToTransfer > 0) {\n            _safeTransferFrom(paymentCurrency, _from, tokensToTransfer);\n            _addCommitment(_from, tokensToTransfer);\n        }\n    }\n\n    /// @notice Returns the amout able to be committed during an auction\n    function calculateCommitment( uint256 _commitment)\n        public view returns (uint256 committed)\n    {\n        uint256 maxCommitment = totalTokens.mul(clearingPrice()).div(1e18);\n        if (commitmentsTotal.add(_commitment) > maxCommitment) {\n            return maxCommitment.sub(commitmentsTotal);\n        }\n        return _commitment;\n    }\n\n    /// @notice Commits to an amount during an auction\n    function _addCommitment(address _addr,  uint256 _commitment) internal {\n        require(block.timestamp >= startDate && block.timestamp <= endDate);  // Outside auction hours\n        commitments[_addr] = commitments[_addr].add(_commitment);\n        commitmentsTotal = commitmentsTotal.add(_commitment);\n        emit AddedCommitment(_addr, _commitment, _currentPrice());\n\n    }\n\n    //--------------------------------------------------------\n    // Finalise Auction\n    //--------------------------------------------------------\n\n    /// @notice Successful if tokens sold equals totalTokens\n    function auctionSuccessful() public view returns (bool){\n        return tokenPrice() >= clearingPrice();\n    }\n\n    /// @notice Returns bool if successful or time has ended\n    /// @dev able to claim early if auction is successful\n    function auctionEnded() public view returns (bool){\n        return auctionSuccessful() || block.timestamp > endDate;\n    }\n\n    /// @notice Auction finishes successfully above the reserve\n    /// @dev Transfer contract funds to initialised wallet.\n    function finaliseAuction () public nonReentrant {\n        require(!finalised);                                  // Auction already finalised\n        if( auctionSuccessful() )\n        {\n            /// @dev Successful auction\n            /// @dev Transfer contributed tokens to wallet.\n            _tokenPayment(paymentCurrency, wallet, commitmentsTotal);\n        }\n        else if ( commitmentsTotal == 0 && block.timestamp < startDate )\n        {\n            /// @dev Cancelled Auction\n            /// @dev You can cancel the auction before it starts\n            _tokenPayment(auctionToken, wallet, totalTokens);\n        }\n        else\n        {\n            /// @dev Failed auction\n            /// @dev Return auction tokens back to wallet.\n            require(block.timestamp > endDate, \"Auction not finished yet\" );\n            _tokenPayment(auctionToken, wallet, totalTokens);\n        }\n        finalised = true;\n    }\n\n    /// @notice Withdraw your tokens once the Auction has ended.\n    function withdrawTokens() public nonReentrant {\n        if( auctionSuccessful() )\n        {\n            /// @dev Successful auction! Transfer claimed tokens.\n            uint256 tokensToClaim = tokensClaimable(msg.sender);\n            require(tokensToClaim > 0, \"No tokens to claim\");\n            claimed[ msg.sender] = claimed[ msg.sender].add(tokensToClaim);\n            tokenWithdrawn = tokenWithdrawn.add(tokensToClaim);\n            _tokenPayment(auctionToken, msg.sender, tokensToClaim);\n        }\n        else\n        {\n            /// @dev Auction did not meet reserve price.\n            /// @dev Return committed funds back to user.\n            require(block.timestamp > endDate);               // Auction not yet finished\n            uint256 fundsCommitted = commitments[ msg.sender];\n            require(fundsCommitted > 0);                      // No funds committed\n\n            commitments[msg.sender] = 0;     // Stop multiple withdrawals and free some gas\n            _tokenPayment(paymentCurrency, msg.sender, fundsCommitted);\n        }\n    }\n\n    //--------------------------------------------------------\n    // Helper Functions\n    //--------------------------------------------------------\n\n    // There are many non-compliant ERC20 tokens... this can handle most, adapted from UniSwap V2\n    // I'm trying to make it a habit to put external calls last (reentrancy)\n    // You can put this in an internal function if you like.\n    function _safeTransfer(address token, address to, uint256 amount) internal {\n        // solium-disable-next-line security/no-low-level-calls\n        (bool success, bytes memory data) = token.call(\n            // 0xa9059cbb = bytes4(keccak256(\"transferFrom(address,address,uint256)\"))\n            abi.encodeWithSelector(0xa9059cbb, to, amount)\n        );\n        require(success && (data.length == 0 || abi.decode(data, (bool)))); // ERC20 Transfer failed\n    }\n\n    function _safeTransferFrom(address token, address from, uint256 amount) internal {\n        // solium-disable-next-line security/no-low-level-calls\n        (bool success, bytes memory data) = token.call(\n            // 0x23b872dd = bytes4(keccak256(\"transferFrom(address,address,uint256)\"))\n            abi.encodeWithSelector(0x23b872dd, from, address(this), amount)\n        );\n        require(success && (data.length == 0 || abi.decode(data, (bool)))); // ERC20 TransferFrom failed\n    }\n\n    /// @dev Helper function to handle both ETH and ERC20 payments\n    function _tokenPayment(address _token, address payable _to, uint256 _amount) internal {\n        if (address(_token) == ETH_ADDRESS) {\n            _to.transfer(_amount);\n        } else {\n            _safeTransfer(_token, _to, _amount);\n        }\n    }\n}",
  "sourcePath": "contracts/DutchAuction.sol",
  "type": "contract"
}